:020000040800F2
:10000000B08D002065010008E339000813300008B6
:10001000E1390008190E00087B4A000800000000C2
:10002000000000000000000000000000AD480008D3
:10003000D5130008000000005D3D0008BD48000821
:100040007F0100087F0100087F0100087F01000890
:100050007F0100087F0100087F0100087F01000880
:100060007F0100087F0100087F0100087F01000870
:100070007F0100087F0100087F0100087F01000860
:100080007F0100087F0100087F0100087F01000850
:100090007F0100087F0100087F0100087F01000840
:1000A0007F0100087F0100087F0100087F01000830
:1000B0007F0100087F0100087F0100087F01000820
:1000C0007F0100087F0100087F0100087F01000810
:1000D0007F0100087F0100087F0100087F01000800
:1000E0007F0100087F0100087F0100080000000078
:1000F0000000000000000000000000000000000000
:1001000000000000000000007F0100087F010008DF
:100110007F0100087F0100087F0100087F010008BF
:100120007F0100087F0100087F0100087F010008AF
:100130007F0100087F0100087F0100087F0100089F
:100140007F0100087F0100087F0100087F0100088F
:10015000DFF80CD000F0F8FB004800476D72000893
:10016000B08D00200648804706480047FEE7FEE7BE
:10017000FEE7FEE7FEE7FEE7FEE7FEE7FEE7FEE757
:1001800049490008510100082DE9F05F05460020AB
:1001900092469B4688460646814640241BE02846F8
:1001A00041464746224600F020F853465A46C01AB8
:1001B000914110D311461846224600F0CEFA2D1A6E
:1001C00067EB01084F4622460120002100F0C5FAE6
:1001D00017EB00094E41201EA4F10104DFDC484664
:1001E00031462A464346BDE8F09F202A04DB203AE8
:1001F00021FA02F00021704721FA02F3D040C2F147
:100200002002914008431946704740EA01039B07CA
:1002100003D009E008C9121F08C0042AFAD203E07B
:1002200011F8013B00F8013B521EF9D27047D2B2DF
:1002300001E000F8012B491EFBD270470022F6E7CF
:1002400010B513460A4604461946FFF7F0FF20464C
:1002500010BD30B505462A460B4612F8010B13F8BF
:10026000014B08B1A042F8D01CB1002802D06D1C8F
:10027000F1E7284630BD421C10F8011B0029FBD1D4
:10028000801A704730B504460020034600E05B1C2E
:10029000934203D2E05CCD5C401BF8D030BD0346F6
:1002A00011F8012B00F8012B002AF9D118467047EC
:1002B00030B505460020034600E05B1C934205D2A2
:1002C000EC5CC85C201A01D1002CF6D130BD0000D6
:1002D0000FB400B58DB010A909900B9000914FF0AC
:1002E000FF300A9000200C900548069005480790C2
:1002F0006A4609A80F9900F065FA0DB05DF814FB85
:10030000E1070008FF0700082DE9FF5F1D464FF0D9
:10031000FF3BD5E9014691465F464FF00008A969C9
:100320007F1C01988847296A824688470028F6D1B1
:10033000BAF1FF3F0CD024F4C064002E19DD600632
:1003400014D5BAF12B0F09D0BAF12D0F0ED103E05D
:10035000584604B0BDE8F09F44F48064A9697F1C4E
:1003600001988847761E8246002E02DDBAF1300FD2
:1003700003D0B9F1000F26D032E0A969761E44F40B
:1003800000747F1C019888478246002E05DDBAF173
:10039000780F06D0BAF1580F03D0B9F1000F10D082
:1003A0001EE0B9F1000F02D0B9F1100F18D1A96900
:1003B000761E24F400747F1C019888478246102022
:1003C00002E0082000E00A20814609E008FB090855
:1003D000A969761E44F400747F1C01988847824600
:1003E000002E05DD4946504600F0D8F90028EDDA28
:1003F000E96901988847A00502D46FF00100A8E7D9
:10040000E00725D1600613D5600502D5C8F10000CC
:1004100000E0404629680A1D2A600968220501D5C6
:10042000087015E0220701D5088011E008600FE090
:100430002868011D29600068210502D580F8008028
:1004400006E0210702D5A0F8008001E0C0F8008096
:1004500038467EE72DE9FE4F804681EA0300C00F53
:100460000C46009021F0004123F00045B8EB02005B
:10047000A94105D24046214690461C460B460246FD
:1004800023F00040104347D0270DC7F30A00C3F301
:100490000A510290401A019040286BDAC3F313000E
:1004A00040F4801B0098924620B10023D2EB030A4F
:1004B00063EB0B0B01985946C0F14002504600F027
:1004C0004CF906460D4650465946019A00F054F93B
:1004D00010EB08006141002487EA115284EAE773B7
:1004E0001A4340D0009A62B3019A012A4FEA075298
:1004F00015DC001B61EB02014FF0004202EA0752DB
:10050000CDE90042001C41F5801132462B4600F037
:10051000CDF903B0BDE8F08F40462146F9E7001B56
:1005200061EB0201001C41F5801300185B412018AB
:10053000A2F5001747EB030140EAD570B6196D41EB
:1005400011E06D084FEA360645EAC0754FEA0752DA
:10055000001B61EB0201001C41F5801149084FEAC4
:1005600030000019514132462B4603B0BDE8F04F30
:1005700000F08DB90098012240000023D0EB020268
:1005800063EBE073009821464FEAE074B8EB00009B
:1005900061EB0401E9E783F000435BE781F0004190
:1005A00058E72DE9FE4F81EA030404F0004421F0EE
:1005B000004100944FF0000B23F0004350EA010487
:1005C0005ED052EA03045BD0C3F30A54C1F30A5568
:1005D0002C44A4F2F3340194A0FB0254C1F31301A0
:1005E00041F48011C3F3130343F4801301FB02446D
:1005F00000FB034E840A970A44EA815447EA835772
:10060000A4FB076802958D0A05FB07854FEA932C2A
:1006100004FB0C542705029D4FEA065847EA16379B
:10062000B5EB08056EEB070C870E920E47EA8117B3
:1006300042EA8312A7FB0201B6EB0B0164EB000454
:100640002B0D43EA0C335E1844EB1C50DA4651463E
:10065000E7FB0201C5F313044FEA0B3343EA1453DB
:100660004FEA0432019C43EA0603A4F10C0402940D
:10067000009CCDE900B400F019F903B0BDE8F08F9B
:1006800000200146F9E770B521F0004303430CD088
:10069000C1F30A550024D5EB040564EB0403D61717
:1006A000AD1AB34102DB0020014670BD201841EBBA
:1006B000025170BD0EB540F2334102910021CDE9E7
:1006C00000110A460B4600F0F1F803B000BD20F01F
:1006D0000040C10DC0F3160040F400007F2901DA8C
:1006E00000207047962903DCC1F19601C84070478D
:1006F00096398840704701F0004330B421F0004142
:1007000050EA010206D00A0DA2F56072C1F313018E
:10071000002A02DC30BC00207047440F44EAC104C8
:10072000C100E01830BC00EBC25000F079B830B521
:100730000B46014600202022012409E021FA02F59F
:100740009D4205D303FA02F5491B04FA02F5284439
:10075000151EA2F10102F1DC30BD202A04DB203A93
:1007600000FA02F1002070479140C2F1200320FA04
:1007700003F3194390407047202A06DBCB17203A39
:1007800041FA02F043EAE07306E041FA02F3D04096
:10079000C2F1200291400843194670473A2800D21E
:1007A000303820F02002412A01D3A2F137008842DC
:1007B00001D34FF0FF307047026811441378016095
:1007C00018467047D1600449516104491162002103
:1007D0001161114600F0D0B8B90700086D09000892
:1007E000426842B1016811F8013B23B1521EC0E9D1
:1007F0000012184670470121C160881E7047426888
:100800005AB1C368016843B983688B4205D0491E59
:10081000521CC0E90012002070474FF0FF307047B3
:100820000029A8BF7047401C490008BF20F0010004
:10083000704710B4B0FA80FC00FA0CF050EA0104E2
:1008400004BF10BC704749B1CCF1200421FA04F474
:1008500011FA0CF118BF012121430843A3EB0C014D
:10086000CB1D4FEA00614FEA102042BF002010BCB0
:10087000704700EBC35010440029A4BF10BC704760
:10088000401C490008BF20F0010010BC704710B5A3
:10089000141E73F1000408DA401C41F100019218A3
:1008A0005B411A4301D120F0010010BD2DE9F04D4C
:1008B00092469B4611B1B1FA81F202E0B0FA80F2A1
:1008C00020329046FFF749FF04460F4640EA0A00EF
:1008D00041EA0B0153465A46084313D0114653EAE6
:1008E000010019D0C8F140025046FFF77EFC0546D2
:1008F0000E46504659464246FFF72FFF084305D0A3
:10090000012004E020463946BDE8F08D0020054373
:1009100046EAE0762C4337430A986305E40AA0EBE5
:1009200008000022FD0A44EA47540A3002D500209C
:100930000146E9E7010510196941DDE9084500199B
:100940006941BDE8F04DA2E7064C074D06E0E068BE
:1009500040F0010394E8070098471034AC42F6D306
:10096000FFF7FAFBDCD10008FCD10008C0B24FF45D
:10097000F05100F097B900002DE9F34F8BB04FF024
:10098000000801F10C000C464FF0010B46460DF13A
:10099000080A01906269012101989047051E2DD037
:1009A000252D2CD0216A8847C0B1626901210198A8
:1009B0009047216A88470028F7D1411E6269019853
:1009C000904700E0761CA1690B988847216A884708
:1009D0000028F7D1E1690B988847DBE7A1690B98FC
:1009E00088470746A84201D1761CD3E7E1690B98F6
:1009F00088477F1C02D1B8F1000F6FD046E1002775
:100A000062693D463946019890472A2804D16269B7
:100A10000121019890470125DFF884926269012144
:100A200001989047A0F130010A290AD24F45E5DC30
:100A300007EB870100EB4107303FDFD445F010059D
:100A4000ECE7E90601D46FF000476C280AD04C2887
:100A500014D0682815D06A280DD074281CD07A28A4
:100A60001AD01DE062690121019890476C2802D0DC
:100A700045F0040514E045F002050DE045F02005C1
:100A80000AE06269012101989047682802D045F088
:100A9000080505E045F40065626901210198904769
:100AA000C4E9015765283DD019DC58287AD00CDC00
:100AB000452837D004DC252826D0412831D131E023
:100AC00046282FD047282CD12CE05B2877D06128EE
:100AD00028D063287CD0642823D15AE0D0E06F2846
:100AE00048D008DC66281DD067281BD0692821D093
:100AF0006E2816D127E0702845D0732868D0752855
:100B000047D078280DD14DE0A1690B98884705465C
:100B100025283FF469AFE1690B9888476D1C3FF4C5
:100B20006AAFB3E023466A466FF001000B99AFF35A
:100B300000809EE045F040006060A80723464FF02B
:100B4000000236D43EE0E8077FF447AF2068011D7D
:100B500021600068290501D506701BE7290701D52A
:100B6000068017E7A90703D5F117C0E9006111E76F
:100B700006600FE745F040006060A80723464FF08D
:100B8000080216D41EE040F60E0125EA010060605E
:100B900016E045F040006060A80723464FF00A02C7
:100BA00007D40FE045F040006060A80708D5234651
:100BB00010226FF001000B99AFF3008059E007E0BD
:100BC000234610226FF001000B99FFF79DFB50E0C8
:100BD0004FF000094F464B46632802D05B2806D0F1
:100BE00040E0E80601D40120A06001273AE06269F4
:100BF0000121019890475E2805D14FF001096269F3
:100C0000494601989047216939B900210A4653465F
:100C100043F82120491C0829FADBB0B3216969B9DE
:100C2000C11700EBD16253110AEB830122F01F02BE
:100C3000821A01200B68904003430B606269012116
:100C4000019890475D28E8D1B9F1000F09D0002044
:100C5000514651F82020D24341F82020401C08285A
:100C6000F7DB02AB224600976FF001000B99AFF360
:100C7000008000280CDA401C08D1BBF1000F05D021
:100C80004FF0FF300DB0BDE8F08FFFE74046F9E7C9
:100C9000E90701D108F1010806444FF0000B79E69D
:100CA000CCCCCC0C7F2801D9002208E0064A02EB0C
:100CB0005002C007127800D1120902F00F02012081
:100CC0009040084070470000C4CF00080EB54FF4B4
:100CD000FA738DE80E0002460123A021034801F0BB
:100CE000FFFABDE80E400A2000F006BD24010020F6
:100CF0000EB54FF4FA738DE80E0002460123A021D1
:100D0000034801F015FCBDE80E400A2000F0F4BCD9
:100D1000240100202DE9F043C61C8BB00024274697
:100D2000E8461EE0355D31466846FFF7B8FAE94609
:100D30003D2D02D03F2D0DD011E0314605A8FFF723
:100D4000AEFA05A8011908F804704846491C00F0DD
:100D5000FDFB04E008F80470484603F001F8641C49
:100D6000E4B2002DDED1032217A14846FFF7A0FA16
:100D7000E8B1042215A14846FFF79AFAD0B107223C
:100D800014A14846FFF794FAB8B1052213A14846CA
:100D9000FFF78EFAA0B1062212A14846FFF788FAA3
:100DA000002801D103F084FD0BB0BDE8F08300F012
:100DB0007FF9F9E700F086F9F6E700F0DDF8F3E7F0
:100DC00001F030FDF0E7000052554E0053544F50F3
:100DD0000000000056455253494F4E0052455345BE
:100DE0005400000054494D494E47000010B50446D8
:100DF000032207A1FFF75CFA08B1002010BD05A18E
:100E00002046FFF726FA0028F8D0012010BD000088
:100E100041542B000D0A0000FEE701790C2901D98D
:100E20000C39017111F0FF0F01D10C2101717047D4
:100E30000179172905D841793B2902D880793B28C7
:100E400001D90020704701207047000010B500F064
:100E50005DF838B1012807D0022812D0032812D03B
:100E60000AA102E00BA100E00DA10F4803F042FE31
:100E70000D490EA003F02EFEBDE810400A4800F018
:100E800035B90BA1F1E70CA1EFE700004572726FD5
:100E9000720D0A004E6F726D616C0D0A0000000049
:100EA00052756E0D0A0000004789002025730A0064
:100EB000576169740D0A000053746F700D0A0000C9
:100EC00008B50A48C17900918379427908A10B30AD
:100ED00003F010FE05490CA00B3103F0FBFD0348A5
:100EE000BDE808400B3000F001B900003C8900204B
:100EF0004C6F63616C2074696D653A25643A2564B2
:100F00003A25640D0A00000025730A0030B5184B1D
:100F1000187A032810D01748FFF77FFF15485A7931
:100F20000179914209D144799D79AC4205D1847906
:100F3000DD79AC4201D1002030BD0C2903D1012A5A
:100F400001D1002101710B4800F0C2F804460D46A2
:100F5000581C00F0BDF8001B61EB05014FF4616205
:100F6000801A71F1000001D2022030BD012030BD95
:100F70003C8900200A01002010B50649064803F00C
:100F8000B9FD054905A003F0A5FDBDE810400248E4
:100F900000F0ACB818D100084789002025730A007A
:100FA00010B51E2000F0A8FB1449487A98B1002023
:100FB0004872C8793B2810D0401CC8710722002015
:100FC000491CFFF795FE0D4901220931BDE810408B
:100FD0000020FFF78DBE0120EAE70022CA71887960
:100FE0003B2802D0401C8871E8E78A7148790C28B8
:100FF00002D0401C4871E1E70120FBE73C8900205A
:101000001FB503A9009102AB01AA19A1FFF760F96E
:101010001A4C019860710298A0710398E071601CED
:10102000FFF706FF00B3601CFFF7F7FE0722611C05
:101030000020FFF75DFE012204F109010020FFF707
:1010400057FEE0790090A37962790DA104F10B00BD
:1010500003F050FD04F10B0110A003F03BFD04F17F
:101060000B0000F043F81FBD0DA003F033FD1FBDC2
:1010700025643A25643A2564000000003C8900207C
:10108000536574204C6F63616C2074696D653A25FB
:10109000643A25643A25640D0A00000025730A00AD
:1010A000496E76616C69642074696D650D0A000093
:1010B0000348017A032901D1002101727047000021
:1010C0003C89002001490320087270473C890020B8
:1010D00002794FF461614A4341798079C1EB011192
:1010E00002EB81010844C117704700000146024825
:1010F000806A0BF0BBB80000CC0000201FB50021B7
:10110000019103914FF4006100910221029118B105
:1011100001200190032003906946024800F026FF59
:101120001FBD00000010014010B500F0A1F82648D6
:10113000017801F00F02090901EB810102EB410185
:10114000CAB2C11D8A71437803F00F04C3F30213BE
:1011500003EB830304EB43034B71837803F00F0429
:101160001B0903EB830304EB43030B71C37803F008
:101170000F041B0903EB830304EB43038B70037918
:1011800003F00F041B0903EB830304EB43034B70D1
:10119000437903F00F041B0903EB830304EB4303C0
:1011A000CB70807900F00F03000900EB800003EBA7
:1011B00040000870502A05D10021BDE81040802071
:1011C00003F05CBC10BD0000030100202DE9F047D6
:1011D000814600242046FFF791FF4FF48068234E9C
:1011E000002245464146304600F0ABFFB7140022CE
:1011F0003946304600F0A5FF01222946304600F06E
:10120000A0FF484600F056F80020FFF777FF0025C2
:101210004FF40069640801223946304600F091FF1E
:1012200000223946304600F08CFF4946304600F037
:1012300083FF08B144F0800401223946304600F0B3
:1012400080FF6D1CEDB2082DE4D3002241463046EC
:1012500000F077FF0120FFF751FF0022494630469A
:1012600000F06FFF2046BDE8F0870000001001404D
:1012700010B58120FFF7AAFF0D4C20708320FFF7E7
:10128000A5FF60708520FFF7A1FFA0708720FFF702
:101290009DFFE0708920FFF799FF20718B20FFF7F9
:1012A00095FF60718D20FFF791FFA07110BD0000C8
:1012B000030100202DE9F04105460120FFF71EFF44
:1012C0000F4F00244FF400684FF48056002231463F
:1012D000384600F036FFE80701D0012200E0002286
:1012E0004146384600F02DFF01223146384600F0D5
:1012F00028FF641C6D08E4B2082CE7D3BDE8F08138
:101300000010014070B5054600218E2003F0B6FBA9
:10131000A8790A24B0FBF4F104FB1101B0FBF4F04E
:1013200001EB0010C1B2802003F0A8FB6879B0FB8C
:10133000F4F104FB1101B0FBF4F001EB0010C1B2B9
:10134000822003F09BFB2879B0FBF4F104FB110130
:10135000B0FBF4F001EB0010C1B2842003F08EFB6F
:10136000A878B0FBF4F104FB1101B0FBF4F001EB41
:101370000010C1B2862003F081FB6878B0FBF4F165
:1013800004FB1101B0FBF4F001EB0010C1B28820A6
:1013900003F074FBE878B0FBF4F104FB1101B0FB3F
:1013A000F4F001EB0010C1B28A2003F067FB28784B
:1013B000B0FBF4F104FB1101B0FBF4F001EB001001
:1013C000C1B28C2003F05AFBBDE8704080218E2012
:1013D00003F054BB70470000064908B509684FF494
:1013E000FA52B1FBF2F14143009100BF491E009156
:1013F000FBD208BD2800002038B50446006800F57F
:101400008050816941F480118161206800F580502D
:10141000806900900120FFF7DFFF2068009900F548
:101420008050816138BD00002DE9F041044621B1B2
:101430004FF40060E060C000A060E0690026002872
:1014400061D035462068402702683A490A40D4E90D
:1014500002131943294341F40071114301602068CC
:101460000568012000F048F92068056020684760A1
:1014700020684568012000F03FF920684560206839
:1014800086602068C660206881694FF6417211400D
:1014900041F08001816120688569012000F02CF90C
:1014A000206885612068C6612068C569012000F058
:1014B00023F92068C561206800F5805081691E4AC3
:1014C00011401E4A0A438261206800F580508569F8
:1014D000012000F011F9206800F580508561206836
:1014E000174900F580500160206800F580500568BC
:1014F000012000F001F9206800F580500560A06926
:10150000012803D009E04FF480659BE7206800F5CF
:101510008050C1690B4A1143C16160690A4A8188E0
:1015200011640178D0F8010041EA00205064BDE860
:10153000F08100000F8120FF233FDEF8040020022D
:101540000020C102400001000080024070B50C463E
:101550000546062238A1FEF7ABFE00283ED0082241
:1015600037A12846FEF7A4FE00283CD0082236A169
:101570002846FEF79DFE00283AD0082234A12846CE
:10158000FEF796FE002838D0062233A12846FEF743
:101590008FFEB8B3082232A12846FEF789FEB0B309
:1015A000092231A12846FEF783FEA8B30B2231A100
:1015B0002846FEF77DFEA0B3042231A12846FEF79F
:1015C00077FE98B306222FA12846FEF771FE002869
:1015D00031D12046BDE87040FFF712BD2046BDE87E
:1015E000704002F08DBE2046BDE8704002F00EBF94
:1015F0002046BDE8704002F0FBBD2046BDE87040CB
:1016000002F08ABF2046BDE8704002F0DDBF2046F0
:10161000BDE8704003F04EB82046BDE8704002F0CF
:1016200023BD2046BDE8704002F096BD2046BDE8CF
:10163000704003F089B870BD44455649440000002D
:101640004445564D41534B0044455647415445008F
:10165000444556504F5254004E54504944000000E7
:101660004E5450504F525400434F4E464947494400
:1016700000000000434F4E464947504F525400006F
:10168000525443004C4F43414C00000072B6FEE7F9
:1016900010B50E489EB00DF1040CC17884794379E1
:1016A00002798CE81E00817800910278437808A1C5
:1016B00005A802F5FA6203F01DFA05A90DA003F0D2
:1016C00009FA05A8FFF712FD1EB010BD0A0100209F
:1016D0005254432074696D653A25642D25642D2587
:1016E0006420D0C7C6DA25642025643A25643A25EB
:1016F000640D0A0025730A0070B5044600F026FD4B
:101700000546601C02D004480078044400F01EFD29
:10171000401BA042FAD370BD1C0000202DE9F0410F
:10172000054690F845000C46012875D0012685F83D
:101730004560022085F844002868002C6FD00268BC
:1017400041490A40D4E900131943D4E902373B4325
:101750001943AB6819432369194363691943EB685B
:101760001943A3691943E3691943236A1943636A57
:101770001943A36A194311430160286807680120CF
:10178000FFF7BAFF28680760D4E90B010843D4E9E2
:101790000D1211430843E16B0843216C0843616C4F
:1017A0000843A16C084329684860286847680120FD
:1017B000FFF7A2FF286847602968E06C8860296805
:1017C000206DC860286882694FF641710A40D4E9EB
:1017D00016131943B4F85470236E43EA07431943B0
:1017E000636E1943A36E19431143816128688769A9
:1017F0000120FFF781FF28688761D4E91B010843B6
:101800002968C8612868C4690120FFF775FF286846
:10181000C46113E000E002E00220BDE8F08101684D
:1018200021F49042D5E9021319431143016028685D
:1018300004680120FFF760FF2868046005F8446F22
:1018400000206870E9E700000F8120FF2DE9F043D8
:1018500090F845500024012D0DD04FF0010980F87B
:101860004590022580F8445044F2F45C4FF0004863
:101870005F1E816216E00220BDE8F08301EB0415D3
:10188000C5F80080C4EBC41606EB460602EB8606DC
:10189000C5E901C6BC4203D205F11006EE6000E0C6
:1018A000E960641C9C42E9D3026802F58052D16071
:1018B00080F84490002180F845100846DCE72DE9C7
:1018C000F04390F845400025012C0BD04FF0010C5F
:1018D00080F845C0022480F844404FF480195F1E10
:1018E000C1621BE00220BDE8F08301EB0514C4F8DF
:1018F0000090C5EBC51606EB460602EB8606A66011
:10190000C6691EB9266846F440062660BD4203D269
:1019100004F11006E66000E0E1606D1C9D42E4D336
:10192000026802F58052116180F844C0002180F8FD
:1019300045100846D7E710B590F84510012913D097
:10194000012380F84530022180F84410816A0A683A
:101950000024002A27DB0A68D20518D5826B521CA6
:101960008263012A02D002E0022010BD01634163BC
:101970000A68C2F30D42121FC263026B92680264CE
:10198000C96840F8281F03774477002010BD0A6813
:10199000920503D58363C0E90C1402E0826B521CEC
:1019A0008263C968816200F8443F4470012010BD21
:1019B0002DE9F8434FF000060400B146009603D02D
:1019C00094F8440018B107E00120BDE8F88384F8DA
:1019D0004560204600F0BEF85948416821F40001F6
:1019E00041604168226A11434160206800F58050DF
:1019F000016841F00101016000F0A8FB05464FF4C9
:101A0000FA7708E000F0A2FB401BB84203D903209C
:101A100004F8440F57E0206800F580500068C007C4
:101A2000F0D12068006920F01C0500F0A9FF4549AD
:101A3000454A0144914202D245F0080506E0434977
:101A400008444349884201D245F00C0520680561ED
:101A50004FF400420021204600F04DFA0125A8BBBA
:101A6000FF20FFF749FE606888B300F06FFB8046F7
:101A700041F288376A460121204600F0F3F800F071
:101A800065FBA0EB0800B84217D800984007F1D5D5
:101A90004FF480520021204600F02DFAB0B900F03A
:101AA00055FB80466A460121204600F0DBF800F035
:101AB0004DFBA0EB0800B8420AD901212046FFF7F0
:101AC000B3FC04F8445F032066707EE724E018E06E
:101AD00000988006E6D56A461021204600F0C2F83C
:101AE000D0B90098410703D54FF40061E16000E0F0
:101AF000E660800701D5A66019E04FF48040A06041
:101B000015E0E068A168C00840EA510082B20021F7
:101B1000204600F0F0F930B101212046FFF784FCA7
:101B200084F8445050E740F6FF70FFF7E5FD494662
:101B30002046FFF779FC84F84450002045E7000078
:101B40000000014000D3CEFEC0E1E40040F1E9FD19
:101B500040787D012DE9F04186B000240094019485
:101B60000294039400683A4988426DD1394841692A
:101B700041F480414161416901F48041049141692E
:101B800041F400414161416901F40041049141691E
:101B900041F480314161416901F4803104918169EE
:101BA00041F010018161816901F0100104918169A6
:101BB00041F004018161816901F0040104918169AE
:101BC00041F0080181618069022500F0080000955C
:101BD00003260195CDE90360DFF87C806946404625
:101BE00000F0C4F98220CDE900041C4F6946384654
:101BF000029400F0BBF90420CDE900056946039684
:101C0000384600F0B3F93020CDE90004694640467B
:101C1000029400F0ABF94FF46050CDE9000569463D
:101C200003960F4800F0A2F900220121404600F07F
:101C300088FA6420FFF760FD01221146404600F05B
:101C400080FA6420FFF758FD06B0BDE8F08100007F
:101C500000800240001002400010014000080140D6
:101C6000000C01402DE9F047044690F844009146ED
:101C700082281DD0822084F84400206802694FF633
:101C8000FF7502F01C03228A05EAC2221A434FF4B0
:101C9000F86303EA8111114321F0020141F00105CB
:101CA000056100F053FA064601274FF480380FE033
:101CB0000220BDE8F08700F049FA801B404505D3BB
:101CC00004F8447F002060700320F2E72068056973
:101CD000E807F0D12068406981B2C9F8001084F8A3
:101CE00044700020E5E7F8B5044690F84500012867
:101CF00039D0012584F84550022084F8440020683A
:101D00000026016841F00801016020680068009029
:101D10002846FFF761FB2168009808602068016889
:101D200041F0040101602068006800900120FFF785
:101D300053FB2168009808602046FFF75DFB206890
:101D400000F58050816941F400518161206800F5FF
:101D50008050816941F00201816184F8445084F827
:101D600045600020F8BD0220F8BDF8B5044690F8A3
:101D70004500012839D0012584F84550022084F817
:101D80004400206800F58050816921F40051816190
:101D9000206800F58050816921F00201816120688E
:101DA0000026016821F004010160206800680090AD
:101DB0000120FFF711FB2168009808602046FFF71B
:101DC0001BFB2068016821F00801016020680068A1
:101DD00000900120FFF700FB21680098086084F85C
:101DE000445084F845600020F8BD0220F8BDF0B5ED
:101DF00090F845300022012B11D0012780F8457062
:101E0000022380F84430002559B1C46A2368002BAE
:101E10000ADA122100F8441F45700120F0BD0220AB
:101E2000F0BD00F8447FF7E740F2F456B1420BD919
:101E3000B1FBF6FCB1FBF6F306FB1C1CBCF1000F7A
:101E400000D05B1C012B43D1226842F0405222603B
:101E5000C26AC1F30C015160C16A0A6842F00042D3
:101E60000A60C16AC968C16234E0D4F800C02CF0CD
:101E7000405CC4F800C032B9C46AD4F800C04CF069
:101E8000805CC4F800C0C46A66605C1EA24214D1C3
:101E9000C46AD4F800C04CF0005CC4F800C0C3F1C0
:101EA0000104C4EBC41404EB4404D0F82CC001EBCF
:101EB0008404C4F30C04CCF80440C46AD4F800C011
:101EC0004CF0004CC4F800C0C46A521CE468C46200
:101ED0009A42CAD3016801F580514A69520705D573
:101EE00004224A61016801F580514D6000F8447F89
:101EF00045700020F0BD2DE9F041044690F8440003
:101F000042281ED0422084F84400206803694FF61E
:101F1000FF7603F01C05238A06EAC3232B434FF404
:101F2000F86505EA8111194341F0030591B2416159
:101F30002068056100F00AF9064601274FF4803851
:101F40000FE00220BDE8F08100F000F9801B404561
:101F500005D304F8447F002060700320F2E7206876
:101F60000569E807F0D184F84470EBE72DE9F84FF4
:101F7000DFF8A4910024A9F1040B23464FF00F08C9
:101F800009F1040AABF1040EBEE00127A7403A4074
:101F9000BA4272D1DFF884C14D68A5EB0C066545E5
:101FA0002BD00DDC032D34D005DC35B3012D19D039
:101FB000022D2FD11BE0112D16D0122D2AD119E0A0
:101FC000B6F5881F19D006DCB6F5803F15D0B6F5FA
:101FD000801F1FD111E0B6F5001F0ED0B6F5041F0B
:101FE00018D10AE0CB6815E0CB681B1D12E0CB6866
:101FF00008330FE0CB680C330CE08B682BB1012B5E
:102000004FF0080303D0476104E0042302E00761B6
:1020100000E00023FF2A01D8064601E000F1040693
:102020004FEA840501D9A5F12005376808FA05FCB7
:1020300027EA0C0703FA05F547EA050737604D68FC
:10204000ED0060D5364DAE6946F00106AE61AD6972
:1020500024F0030605F001050095324D7719BE689E
:10206000A5072D0F08FA05FC26EA0C06DFF8B8C014
:10207000604503D14FF0000C17E044E0DFF8ACC03E
:10208000604502D14FF0010C0FE0DFF8A4C06045BD
:1020900002D14FF0020C08E0DFF898C0604502D191
:1020A0004FF0030C01E04FF0040C0CFA05FC4CEA75
:1020B000060CC7F808C04D68D9F80060ED024D461F
:1020C00001D5164300E096432E604D68DAF80060B3
:1020D000AD02554601D5164300E096432E604D688B
:1020E000DBF80060AD035D4601D5164300E0964382
:1020F0002E604D68DEF80060ED03754601D516438D
:1021000000E096432E60641C0A6832FA04F57FF4FE
:102110003CAFBDE8F88F000008040140000011103A
:10212000001002400000014000080140000C014086
:1021300000100140001401408068084000D00120D8
:1021400070470AB1016170470904FBE701488068E4
:10215000704700001C00002070B5040025D094F8E2
:102160003D00002520B984F83C50204600F078FA64
:10217000242084F83D002068016821F001010160FD
:102180002068016841F4004101602068016821F481
:102190000041016000F0FAFB4D4B6168994201D8A3
:1021A0004C4900E04C49884201D2012070BD4B49A6
:1021B0002268B0FBF1F1566826F03F060E435660E8
:1021C00062689A4206D94FF4967251434FF47A727C
:1021D000B1FBF2F12268491C166A26F03F06314332
:1021E00011626168994210D84900401EB0FBF1F2BB
:1021F000521CC2F30B02042A01D2042022E0B0FBDD
:10220000F1F0401CC0F30B001CE0A268F2B301EB3C
:10221000C10303EB0116431EB3FBF6F35B1C43F44F
:1022200080431B0549D092B301EBC10202EB0111BF
:10223000401EB0FBF1F0401CC0F30B0040F48040A6
:1022400040F400402168CA694CF6FF739A4310437A
:10225000C861D4E9071001432068026822F0C00277
:1022600011430160D4E9030101432068826848F208
:10227000FF339A4311438160D4E90510014320687C
:10228000C26822F0FF021143C16001E00EE016E0D7
:102290002068016841F0010101602564202084F874
:1022A0003D00256384F83E50002070BD01EB4106DF
:1022B000431EB3FBF6F35B1CB3E70120C2E701EB5F
:1022C0004101401EB0FBF1F0401CC0F30B00B7E72A
:1022D000A086010080841E0000093D0040420F00DE
:1022E0002DE9FF4F83B00026DDE910799A46934629
:1022F0000446DDF848800096FFF728FF054694F86D
:102300003D0020287CD119230122854920460095D3
:1023100000F095FF0028F5D194F83C0001286FD01B
:10232000012084F83C0020680168C90703D10168D6
:1023300041F0010101602068016821F40061016041
:10234000222084F83D00402084F83E002664676225
:10235000A4F82A90608D20857248E062CDE900855E
:1023600053465A462046049900F06CFE00287DD161
:10237000208DDFF8B491202768B1012814D00228FD
:10238000206801681ED041F48061016020684169C5
:1023900080690090B6E02068416981690091016818
:1023A00041F400710160ADE02068016821F48061B2
:1023B000016072B62068416981690091016841F449
:1023C00000710AE041F40061016072B62068416961
:1023D00081690091016821F48061016062B691E039
:1023E000032868D801280CD0022843464FF0000289
:1023F0004946204600950FD000F021FFB0BB10E009
:102400008BE02A464146204600F0BAFF70BB2068A8
:102410000069616A08706CE000F011FF30BB72B6B1
:1024200034E02068016821F48061016072B62068A0
:102430000069616A0870606A401C6062208D401EFD
:102440002085608D401E6085384846F2A8110068DE
:10245000B0FBF1F0C0EBC00000EB80000090401E2C
:10246000009008D020684069C04300E029E04007A0
:102470000CD50098F3E744F8306F6773A6732069B2
:1024800040F02000206162B626731AE020680168DF
:1024900041F40071016020680069616A0870606A37
:1024A000401C6062218D491E2185618D491E618518
:1024B00062B621681BE02A464146204600F060FFD4
:1024C00018B1012007B0BDE8F08F20680069616A8B
:1024D0000870606A401C6062218D491E2185618DF3
:1024E000491E618521684A69D24352070AD40969A5
:1024F0000170606A401C6062208D401E2085608DE6
:10250000401E6085208D00287FF46AAF84F83D70FE
:1025100084F83E6084F83C60D4E70220D2E70000F3
:10252000020010000000FFFF04000100280000204E
:102530002DE9FF4F83B09A46DDE911979346044693
:10254000DDF84080FFF702FE054694F83D002028A4
:102550007FD11923012240492046009500F06FFEEB
:10256000002876D194F83C00012872D0012084F82C
:102570003C0020680168C90703D1016841F00101EE
:1025800001602068016821F400610160212084F865
:102590003D00402084F83E0000262664C4F82480D4
:1025A000A4F82A90608D20852C48E062CDE9007562
:1025B00053465A462046049900F0C2FD70B930E0F7
:1025C0002A463946204600F015FF58B1206C0428F1
:1025D00004D12068016841F400710160012007B056
:1025E000BDE8F08F606A216800780861626A521C59
:1025F0006262208D401E80B22085618D491E6185FA
:1026000021684B69DB435B070BD468B11078086124
:10261000606A401C6062208D401E2085608D401ED7
:102620006085208D0028CBD12A463946204600F00F
:10263000DBFD0028CAD154F83D0B016841F400715C
:102640000160202004F81E09E67766770020C6E7BF
:10265000FFE70220C3E70000020010000000FFFFB8
:1026600010B586B00021009101910291039100689C
:102670000F4988421AD10F4CA06940F00800A061B0
:10268000A069694600F008000490C0200090122064
:102690000190032003900848FFF768FCE06940F4CC
:1026A0000010E061E06900F40010049006B010BD75
:1026B0000054004000100240000C014070B50400BE
:1026C00011D021684CF6CC400860216845F2555085
:1026D0000860D4E9000141602168A0688860FFF7C4
:1026E00035FD05460CE0012070BDFFF72FFD401BB6
:1026F000272805D92068C068800701D0032070BD55
:102700002068C0688007F0D121684AF6AA200860D6
:10271000002070BD00684AF6AA21016000207047C1
:102720000248816802781144816070471C000020D3
:10273000074810B5016841F010010160032000F066
:102740005FF80F2000F006F800F024F8002010BD1C
:102750000020024070B50D4D04464FF47A71287880
:10276000B1FBF0F00A490968B1FBF0F000F086FB1C
:1027700048B9102C07D200222146501E00F020F844
:1027800000206C6070BD012070BD00001C000020A6
:1027900028000020094808B5816941F001018161E4
:1027A000816901F001010091C16941F08051C1616D
:1027B000C06900F08050009008BD00000010024089
:1027C000F0B40E4B1B68C3F30223C3F10704042CBF
:1027D00000D904241D1D072D01D2002300E0DB1EBB
:1027E000012606FA04F56D1E0D409D409E40761EA2
:1027F000164045EA0601F0BC02F090B90CED00E08D
:10280000064A00F0070110684FF6FF03184040EA3F
:102810000120034908431060704700000CED00E000
:102820000000FA05BFF34F8F05480168054A01F41F
:10283000E06111430160BFF34F8F00BFFDE700006F
:102840000CED00E00400FA052DE9F0470D46040008
:1028500067D0DFF81881D8F8000000F00700A84220
:102860000CD2D8F8001021F007012943C8F8001055
:10287000D8F8000000F00700A84252D120683C4E72
:10288000810712D5400703D5706840F4E06070609E
:102890002078000703D5706840F46050706070685D
:1028A000A16820F0F000084370602078C00727D0AE
:1028B0006068012810D03168022810D089070029EB
:1028C0002FDA716821F0030101437160FFF73EFCCC
:1028D000074641F288390CE031688903EFE7890146
:1028E000EDE7FFF733FCC11B494502D90320BDE8E2
:1028F000F0877068616800F00C00B0EB810FF0D1D8
:10290000D8F80010404601F00701A9420BD9016830
:1029100021F0070129430160006800F00700A84288
:1029200001D00120E3E72078400705D57068E16811
:1029300020F4E060084370602078000706D57068D6
:10294000216920F4605040EAC100706000F03EF858
:102950007168084AC1F30311515CC8400649086018
:1029600006480068FFF7F6FE0020C0E7002002409E
:1029700000100240A2C8000828000020200000200B
:1029800001480068704700002800002004480549FD
:1029900000684968044AC1F30221515CC84070478D
:1029A0002800002000100240B2C800080448054971
:1029B00000684968044AC1F3C221515CC8407047AD
:1029C0002800002000100240B2C800082DE9F041A4
:1029D0001E4B586800F00C01042904D0082904D0CB
:1029E0001B48BDE8F0811B48FBE71B49C0F383424D
:1029F000C0038C5C27D5D86A0E3100F00F00085C4C
:102A0000D96AC90316D5D96AC1F30312D96A521C0F
:102A1000C1F30321891CA2FB0023A1FB04170D4D68
:102A20000026A1FB050C07FB05C501FB0651FDF7C0
:102A3000ABFB04E0074A04FB02F1B1FBF0F00D2C04
:102A4000CFD14008CDE705486043CAE700100240F7
:102A500000127A0040787D0184C8000800093D001A
:102A600030B585B000200290022001900320039031
:102A70000B4C4FF480700090A0690D4640F00400AC
:102A8000A061A069694600F0040004900548FFF7C2
:102A90006DFA606820F070602843606005B030BD5A
:102AA00000100240000801402DE9F84F04006ED0EC
:102AB0002078ED4DC00747D06868C0F38100012839
:102AC00007D06868C0F38100022809D16868C00394
:102AD00006D52868800337D5A0680028E7D033E002
:102AE000A068B0F5803F0BD010B1B0F5A02F11D089
:102AF000286820F480302860286820F4802002E0D4
:102B0000286840F480302860A06888B1FFF71EFB79
:102B1000064609E0286840F480202860F0E7FFF7C7
:102B200015FB801B642874D828688003F7D50BE058
:102B3000FFF70CFB064604E0FFF708FB801B642848
:102B4000F1D828688003F7D42078C84E80074FF06A
:102B5000010A4FF000073AD5686810F00C0F07D053
:102B60006868C0F38100022809D16868C00306D4F0
:102B70002868800715D56069012808D111E06069CF
:102B8000B8B1C6F800A0FFF7E1FA804606E041E1DF
:102B9000FFF7DCFAA0EB08000228C4D828688007F9
:102BA000F6D52868A16920F0F80040EAC100286045
:102BB0000DE03760FFF7CAFA804605E0FFF7C6FA76
:102BC000A0EB08000228AED828688007F6D4207849
:102BD00000072DD5A648E169E1B1C0F800A0FFF7D4
:102BE000B5FA804605E0FFF7B1FAA0EB080002282D
:102BF00099D8686A8007F6D59E484FF4FA51006864
:102C0000B0FBF1F0009000BF0098411E0091FAD295
:102C10000EE0B1E00760FFF799FA804605E0FFF7A4
:102C200095FAA0EB080002288AD8686A8007F6D4D3
:102C30002078400762D5E8694FF00009C00009D448
:102C4000E86940F08050E861E8694FF0010900F060
:102C50008050009088480168C90512D401688346F5
:102C600041F480710160FFF771FA804605E0FFF7DB
:102C70006DFAA0EB080064287ED8DBF80000C005E0
:102C8000F5D5206901280AD008B1052813D0286A93
:102C900020F001002862286A20F0040002E0286A7F
:102CA00040F001002862206941F2883B90B1FFF7B3
:102CB0004DFA80460AE0286A40F004002862EEE7F8
:102CC000FFF744FAA0EB0801594555D8286A800758
:102CD000F6D50CE0FFF73AFA804605E0FFF736FA42
:102CE000A0EB0801594547D8286A8007F6D4B9F106
:102CF000000F03D0E86920F08050E861E06AE0B39B
:102D00006968C90307D56968C1F38101022902D145
:102D1000E96AC9037ED4022808D0E86A20F480302A
:102D2000E862B766FFF712FA80463BE02868C00009
:102D300005D5E86A616B00F0F00088426AD1B76699
:102D4000FFF704FA804605E0FFF700FAA0EB080061
:102D5000642871D828680001F6D4E86A616B20F015
:102D6000F0000843E862E86A216B20F470600843D1
:102D7000E862C6F868A001E05EE016E0FFF7E6F959
:102D8000804605E0FFF7E2F9A0EB0800642853D87D
:102D900028680001F6D508E0FFF7D8F9A0EB080095
:102DA000642849D828680001F6D4206A98B3696875
:102DB000C1F38101022946D00228376603D0FFF70C
:102DC000C5F904463BE0FFF7C1F9074604E0FFF709
:102DD000BDF9C01B02282FD828688001F7D4606A8B
:102DE000B0F5803F09D1E86A61680843E862E86AA3
:102DF000E16820F00F000843E862D4E909010843C4
:102E0000696821F4741108436860C6F860A0FFF790
:102E10009DF901E024E025E0044604E0FFF796F97F
:102E2000001B022808D828688001F7D51AE0FFF7B0
:102E30008DF9001B022802D90320BDE8F88F28680D
:102E40008001F4D40EE00128F7D06868626A00F4CB
:102E50008031914204D1A16A00F47010884201D0FF
:102E60000120EAE70020E8E70010024000004242AB
:102E700080044242280000200070004010B5401E2F
:102E8000B0F1807F01D3012010BD4FF0E0246061DC
:102E90000F21601701F042FE0020A0610720206191
:102EA000002010BD70B5040004D094F84100002546
:102EB00010B106E0012070BD84F84050204600F0BB
:102EC00023F8242084F841002068C16821F40051CF
:102ED000C160204601F03AFD2068016921F490416B
:102EE00001612068416921F02A0141612068C168BF
:102EF00041F40051C1606564202084F8410084F8E9
:102F000042006563002070BD30B585B00024009498
:102F100001940294039400681449884224D114480F
:102F2000816941F480418161816901F480410491AA
:102F3000816941F00401816180690E4D00F0040057
:102F400004904FF400700090022001900320039041
:102F500069462846FFF70AF82815CDE900046946B6
:102F600028460294FFF702F805B030BD0038014052
:102F700000100240000801402DE9F843044690F893
:102F800041001F4615460E46202802D00220BDE80B
:102F9000F8837EB175B100206064212084F841007F
:102FA000FFF7D4F8A5848046E584A068B0F5805F7B
:102FB00002D003E00120EAE7206910B1354600267F
:102FC0000EE000250CE08021204601F01BFDA0B999
:102FD000ADB115F8010B21684860E08C401EE0841B
:102FE000E08C43464FF0000200970028EBD14FF0F1
:102FF0004001204601F006FD30B10320C7E736F856
:10300000020BC0F30800E6E7202084F8410000200E
:10301000BDE7FEE701684A69D24352050FD46FF459
:1030200080624A61002140F8301F20224273817380
:10303000026942F00402026101730120704700201E
:10304000704700002DE9F84F0446006889460B9E42
:1030500001689846174641F4806101602068016864
:1030600041F48071016000964FF0011B0022594627
:1030700020460A9B00F0E3F84FF4007A40B1206844
:103080000068C00501D5C4F840A00320BDE8F88F52
:10309000216809F0FE0008613346284920460A9A53
:1030A00000F011F9F0BB2068416980690090324658
:1030B00020460A9900F09EF940B1206C04283AD1CC
:1030C0002068016841F40071016034E0FDB2B8F19C
:1030D000010F09D02168380A0861324620460A9952
:1030E00000F088F90028E8D12068056132462046C2
:1030F0000A9900F07FF90028DFD12068016841F4C7
:103100008071016000960022594620460A9B00F01B
:1031100096F80028B3D1216809F0FF0040F00100C3
:10312000086100E007E03346044920460A9A00F0AF
:10313000CAF80028AAD00120A8E700000200010078
:103140002DE9F843044600680D46DDE9089701685B
:103150009846164641F4807101604B4600224FF0BC
:1031600001112046009700F06AF848B12068006815
:10317000C00502D54FF4007020640320BDE8F88339
:10318000216805F0FE0008613B464A461549204685
:1031900000F099F888B920684169806900903A4642
:1031A0004946204600F026F948B1206C042804D195
:1031B0002068016841F4007101600120DEE7F5B28A
:1031C000B8F1010F09D02168300A08613A46494632
:1031D000204600F00FF90028E7D1206805610020A3
:1031E000CCE700000200010070B516460D4604460B
:1031F0001EE02046FFF70EFF08B1012070BD681CDD
:1032000016D0FEF7A3FF801BA84200D885B920681E
:103210004069C04340070BD5002044F8300F2021FF
:103220006173A073216941F0200121612073E4E7FB
:1032300020684069C0434007DBD4002070BD2DE901
:10324000F0471E4690460D460446C1F30747DDF899
:10325000209026E0701C24D0FEF778FFA0EB090038
:10326000B04200D8EEB92068012F16D0806925EA57
:1032700000000004000C12D00020404511D10020B5
:1032800044F8300F20216173A073216941F02001BF
:10329000216120730120BDE8F0874069E7E7012044
:1032A000EBE72068012F0AD0806925EA00000004BE
:1032B000000C06D000204045CCD00020EBE7406950
:1032C000F3E70120F7E72DE9F047984616460D464B
:1032D00004464FF000094FF0200AC1F3074723E0EE
:1032E00020684069C043400515D42068016841F456
:1032F0000071016021686FF480604861C4F830900B
:1033000084F83DA084F83E90216C41F004012164D2
:1033100084F83C9020E0701C06D0FEF717FFA0EB6D
:103320000800B04203D816B1012F1ED020E020685B
:10333000012F14D0806925EA00000004000C17D08A
:1033400044F8309F84F80DA084F80E90216941F074
:103350002001216184F80C900120BDE8F0874069CC
:1033600025EA00000004000CEAD12068406901E071
:103370002068806925EA00000004000CB0D1ECE769
:103380002DE9F04116460D46044600274FF020086F
:1033900029E04069C043C0060DD454F8301B6FF0DB
:1033A0001000486144F80D7B04F81D89A777206A56
:1033B0002062277714E0FEF7C9FE801BA84200D8E0
:1033C0008DB920684069C04340060CD544F8307F71
:1033D00084F80D80A773206940F0200020612773D6
:1033E0000120BDE8F08120684169C9434906D0D475
:1033F0000020F6E770B516460D4604461EE020464E
:10340000FFF708FE08B1012070BD681C16D0FEF75A
:103410009DFE801BA84200D885B920684069C04342
:1034200000060BD5002044F8300F20216173A073F3
:10343000216941F0200121612073E4E7206840699F
:10344000C0430006DBD4002070BD000000B587B08B
:1034500005AA04A9CDE9001203AB02AA0FA1FCF74B
:1034600037FF0298FF280BDA0398FF2808DA049840
:10347000FF2805DA0598FF2802DA012007B000BD11
:1034800009A10C4801F036FB0A490BA001F022FB10
:103490000848FDF72BFE0020F0E7000025642E25EC
:1034A000642E25642E256400496E76616C69642063
:1034B00049500000D888002025730A0070B5042206
:1034C0004C490020FDF702FC02224B491420FDF775
:1034D000FDFB494D474C6878297800EB0120A0821C
:1034E000217846A001F0F6FA617848A001F0F2FADE
:1034F000A17846A001F0EEFAE17845A001F0EAFAE1
:10350000A18A44A001F0E6FA0422211D1046FDF72D
:10351000DDFB217943A001F0DDFA61793BA001F0E8
:10352000D9FAA17939A001F0D5FAE17938A001F0F2
:10353000D1FA042204F108010820FDF7C7FB217A23
:103540003CA001F0C7FA617A30A001F0C3FAA17A79
:103550002EA001F0BFFAE17A2DA001F0BBFA0422FF
:1035600004F10C010C20FDF7B1FB022229461620C4
:10357000FDF7ACFB6878297800EB0120E082217B25
:1035800030A001F0A7FA617B20A001F0A3FAA17B93
:103590001EA001F09FFAE17B1DA001F09BFAE18AD9
:1035A0002CA001F097FA042204F110011020FDF77D
:1035B0008DFB022229461820FDF788FB68782978C0
:1035C00000EB01202083217C26A001F083FA617C9E
:1035D0000EA001F07FFAA17C0CA001F07BFAE17C47
:1035E0000BA001F077FA218BBDE8704021A001F01B
:1035F00071BA000080800020D40000206465765FEE
:10360000616464723A256420000000002564200093
:1036100025640A006465765F706F72743A25640AE7
:10362000000000006465765F6D61736B3A2564206D
:10363000000000006465765F676174653A25642068
:10364000000000006E74705F616464723A2564204B
:10365000000000006E74705F706F72743A25640A27
:1036600000000000636F6E6669675F616464723AB0
:1036700025642000636F6E6669675F706F72743ACD
:1036800025640A0038B523A001F024FA0422254954
:103690000020FDF72DFB23490422091D1046FDF7EC
:1036A00027FB2049042208310820FDF721FB1D4992
:1036B00004220C310C20FDF71BFB1A4904221031A7
:1036C0001020FDF715FB174C02220A3C6088010A06
:1036D0008DF800108DF8010069461420FDF708FBF5
:1036E000A0880222010A8DF800108DF801006946B9
:1036F0001620FDF7FDFAE0880222010A8DF800107D
:103700008DF8010069461820FDF7F2FA0A20FDF74E
:10371000F3FF38BD57726974652041543234435801
:10372000580A0000D60000202DE9F04786B000249A
:103730003A480094019402940394816941F0200175
:103740008161816901F020010491816941F01001DA
:103750008161816901F010010491816941F00401E6
:103760008161816901F004010491816941F00801DE
:1037700081618069DFF8A8A000F0080004900122B0
:1037800040F2C1315046FEF7DCFCDFF89890012290
:1037900008214846FEF7D5FC4FF4E0580022414688
:1037A0005046FEF7CEFC0125022603960095CDE992
:1037B000015469465046FEF7D9FB0820CDE90005C3
:1037C0000327CDE9025769464846FEF7CFFB40F292
:1037D00007408DE8310069461348FEF7C7FB4FF4F8
:1037E0007070CDE90005CDE9025769465046FEF7F5
:1037F000BDFB2802CDE90006694648460396FEF760
:10380000B5FBCDF800800397CDE9015469465046D9
:10381000FEF7ACFB06B0BDE8F087000000100240E8
:103820000010014000080140000C01400D4810B597
:103830000B4901600C49416000214FF480428160D6
:10384000C0E9031241618161C1610162FEF784FC3C
:10385000002803D0BDE81040FDF718BF10BD0000E0
:103860000054004024010020A0860100094810B542
:1038700007490160062141604FF47A718160FEF7CB
:103880001DFF002803D0BDE81040FDF7FFBE10BDAE
:103890000030004078010020FEB5394CC022A8233A
:1038A000227063700120A0706721E170251DFF2147
:1038B00029706970A97000272E1DEF703270737027
:1038C000B070F07003F0A6FC2068E17803BA0A0635
:1038D00003F47F4342EA032203BA00BA03F47F03EE
:1038E000084342EA1322A4F10C0142EA1060086086
:1038F0002868E97803BA0A0603F47F4342EA032200
:1039000003BA00BA03F47F03084342EA1322A4F186
:10391000080142EA106008603068F17803BA0A06CC
:1039200003F47F4342EA032203BA03F47F0300BA9D
:1039300042EA1322084342EA1060211F231F086055
:10394000104811490097CDE901101A1F111F0F48A7
:1039500004F010FA0D4804F0AFFA0C4890F82F006C
:1039600040070A4802D504F0E7FA01E004F0AAFA99
:1039700003B00749BDE8F040044804F0D5BA0000A0
:1039800010000020D1590008695B0008444A00205B
:103990001D5C000810B5034802F02EF9BDE8104088
:1039A00005F00CBB444A00200C4810B50A490160E0
:1039B0004FF4E1314160002181600C22C160C0E917
:1039C00004128161C161FFF76DFA002803D0BDE8E0
:1039D0001040FDF75BBE10BD00380140840100209F
:1039E000FEE7FEE73EB525490868CA7804BA130623
:1039F00004F47F4443EA042304BA04F47F0400BAC5
:103A000043EA1423104343EA106000904868CA79DF
:103A100004BA130604F47F4443EA042304BA04F40A
:103A20007F0400BA43EA1423104343EA1060019074
:103A30008868C97A03BA0A0603F47F4342EA03227C
:103A400003BA03F47F0300BA42EA1322084342EAAE
:103A5000106002900A4804F035FA02A9084804F000
:103A60003EFA01A9064804F063FA6946044804F0E6
:103A70003BFA034804F060FA3EBD0000808000205D
:103A8000444A002070B5002505F1B000C0B2002105
:103A900000F028F90021084600F024F90021102048
:103AA00000F020F900240121002000F01BF9641C23
:103AB000E4B2802CF7D36D1CEDB2082DE4D370BDB9
:103AC00010B54FF49670FDF717FE0021AE2000F000
:103AD00009F90021084600F005F90021102000F046
:103AE00001F90021402000F0FDF80021812000F0C4
:103AF000F9F80021CF2000F0F5F80021A12000F016
:103B0000F1F80021C82000F0EDF80021A62000F017
:103B1000E9F80021A82000F0E5F800213F2000F09E
:103B2000E1F80021D32000F0DDF80021084600F084
:103B3000D9F80021D52000F0D5F80021802000F030
:103B4000D1F80021D92000F0CDF80021F12000F0BB
:103B5000C9F80021DA2000F0C5F80021122000F099
:103B6000C1F80021DB2000F0BDF80021402000F06A
:103B7000B9F80021202000F0B5F80021022000F063
:103B8000B1F800218D2000F0ADF80021142000F0E4
:103B9000A9F80021A42000F0A5F80021A62000F03B
:103BA000A1F80021AF2000F09DF80021AF2000F027
:103BB00099F8FFF767FF0021BDE810400846AFF312
:103BC000008010B50446B031C8B2002100F08AF878
:103BD000102040EA1410002100F084F804F00F00D7
:103BE000BDE8104040F00100002100F07BB800006B
:103BF0002DE9F041203A00240F468046D5B27F28B7
:103C000003D900208F1C8046FFB23946FFF7D9FF49
:103C10000E4E04EB05100121305C00F063F8641CCB
:103C2000E4B2082CF5D37F1CF9B24046FFF7C9FF78
:103C3000002404EB051030440121007A00F052F812
:103C4000641CE4B2082CF4D3BDE8F081D4C90008A8
:103C50002DE9F0478046002708981D4691468A4680
:103C60003C46460821E0281B401EC1B20A2004F051
:103C700071F9B9FBF0F00A21B0FBF1F201FB12007F
:103C800027B9691E8C4201DA30B101273030C2B247
:103C900006FB0480C0B203E006FB0480C0B2202211
:103CA0005146FFF7A5FF641CE4B2AC42DBD3BDE88C
:103CB000F0872DE9F04117460E46044600250CE03A
:103CC00031462046FFF794FF0834E4B2782C02D93D
:103CD0000024B61CF6B26D1CEDB27A5D002AEFD15D
:103CE000BDE8F0812DE9F0411B4E054600244FF45C
:103CF000807809B1012200E0002241463046FEF7FB
:103D000020FA4FF40077002239463046FEF719FAC0
:103D1000002280213046FEF714FA280601D5012240
:103D200000E0002240213046FEF70BFA01228021FC
:103D30003046FEF706FA6806050E641C082CE7DB21
:103D4000012239463046FEF7FCF941463046BDE8CF
:103D5000F0410122FEF7F5B9001001407047000064
:103D600010B59CB00446062273A1FCF7A1FA002806
:103D700049D0082272A12046FCF79AFA002853D0B5
:103D8000082271A12046FCF793FA002862D008228D
:103D90006FA12046FCF78CFA00286CD006226EA199
:103DA0002046FCF785FA002879D008226CA120462D
:103DB000FCF77EFA002870D009226BA12046FCF7A0
:103DC00077FA00286AD00B226AA12046FCF770FA25
:103DD000002875D004226AA12046FCF769FA002861
:103DE0006FD0062267A12046FCF762FA002869D04E
:103DF000062266A12046FCF75BFA002801D1FDF7F8
:103E000025F81CB010BD04221BA90020FCF75EFFA2
:103E10009DF86F109DF86E00CDE900019DF86D30A2
:103E20009DF86C205BA16CE002221BA91420FCF71A
:103E30004DFF9DF86D009DF86C1000EB012082B2E3
:103E40005BA16FE002A95FA000F044FE02A8FDF7AD
:103E50004DF9D6E704221BA91046FCF737FF9DF861
:103E60006F109DF86E00CDE900019DF86D309DF852
:103E70006C2055A145E004221BA90820FCF726FF71
:103E80009DF86F109DF86E00CDE900019DF86D3032
:103E90009DF86C2053A134E001E014E021E00422FD
:103EA0001BA90C20FCF712FF9DF86F109DF86E0007
:103EB000CDE900019DF86D309DF86C2050A120E007
:103EC00023E033E035E002221BA91620FCF7FEFEBA
:103ED0009DF86D009DF86C1000EB012082B24FA19F
:103EE00020E004221BA91020FCF7F0FE9DF86F10C3
:103EF0009DF86E00CDE900019DF86D309DF86C20B5
:103F00004BA102A800F0F6FD9CE702221BA9182095
:103F1000FCF7DCFE9DF86D009DF86C1000EB0120B5
:103F200082B24BA102A800F0E5FD8BE7FDF7B0FBE4
:103F300067E7FCF7C5FF64E74445564944000000C5
:103F4000444556504F5254004445564D41534B0042
:103F500044455647415445004E54504944000000E2
:103F60004E5450504F525400434F4E4649474944D7
:103F700000000000434F4E464947504F5254000046
:103F8000525443004C4F43414C00000053544154A1
:103F90005553000043757272656E7420444556494E
:103FA000443D25642E25642E25642E2564000000E2
:103FB00043757272656E7420444556504F52543D9D
:103FC0002564000025730A0043757272656E7420C3
:103FD0004445564D41534B3D25642E25642E2564A2
:103FE0002E25640043757272656E742044455647F1
:103FF0004154453D25642E25642E25642E256400FC
:1040000043757272656E74204E545049443D256468
:104010002E25642E25642E256400000043757272DF
:10402000656E74204E5450504F52543D256400002C
:1040300043757272656E7420434F4E46494749443A
:104040003D25642E25642E25642E25640000000085
:1040500043757272656E7420434F4E464947504F08
:1040600052543D256400000030B587B00446FFF788
:10407000EDF9002851D006A905A8CDE9000104AB4F
:1040800003AA27A12046FCF723F903988DF808001E
:1040900004988DF8090005988DF80A0006988DF8A7
:1040A0000B00042202A91020FCF722FE04221F4963
:1040B0001020FCF70BFE1D4C103CE17CA07CCDE9F0
:1040C0000001637C227C1AA104F6580000F012FD66
:1040D00004F658011EA000F0FDFC04F65800FDF7A0
:1040E00005F81C4DA86A08F05FF92069E17C03BA65
:1040F0000A0603F47F4342EA032203BA00BA03F438
:104100007F03084342EA132205F1200142EA1060CE
:104110000860228BA86A08F01FF907B030BD0000C4
:1041200025642E25642E25642E25640090800020B1
:1041300043757272656E7420434F4E464947494439
:104140003D25642E25642E25642E25640000000084
:1041500025730A00CC0000207CB501AA1AA1FCF747
:10416000B7F81A4C019802222083010A8DF800103A
:104170008DF8010069461820FCF7BAFD0222694655
:104180001820FCF7A3FD9DF801009DF8001000EB3E
:1041900001220FA104F65800019200F0ABFC04F6D6
:1041A000580111A000F096FC04F65800FCF79EFFA1
:1041B0000E4DA86A08F0F8F8228B05F12001A86AD4
:1041C00008F0CAF87CBD0000256400008080002053
:1041D000D0DEB8C4CDEAB3C90A434F4E4649475072
:1041E0004F52543D2564000025730A00CC00002086
:1041F00030B58FB00446FFF729F9002861D00DA92A
:104200000CA8CDE900010BAB0AAA2FA12046FCF7B0
:104210005FF8304C0A9804F1080120720B98607224
:104220000C98A0720D98E07204220D460820FCF74D
:104230005FFD042229460820FCF748FDE17AA07AB8
:10424000CDE90001637A227A23A104F6580000F038
:1042500051FC04F6580127A000F03CFC04F658007D
:10426000FCF744FF244DA86A08F09EF8E86A08F0BD
:104270009BF82069009060690190208BADF80800E0
:104280001A22214603A8FBF7C0FF0DF10C0C9CE895
:104290000F00FFF7A7FBA28A1849A86A07F0ECFEF7
:1042A000A28A1649E86A07F0E7FE228B05F1200191
:1042B000A86A08F051F8E28A05F12401E86A08F0DA
:1042C0004BF80FB030BD000025642E25642E256408
:1042D0002E2564008080002043757272656E742004
:1042E000444556474154453D25642E25642E25649A
:1042F0002E25640025730A00CC000020C4C90008E4
:1043000030B58FB00446FFF7A1F800285FD00DA9A3
:104310000CA8CDE900010BAB0AAA2EA12046FBF7A1
:10432000D7FF2F4C0A98042220700B9860700C98CD
:10433000A0700D98E07021460020FCF7D9FC042203
:1043400021460020FCF7C2FCE178A078CDE900010D
:104350006378227823A104F6580000F0CBFB04F622
:10436000580127A000F0B6FB04F65800FCF7BEFE8B
:10437000244DA86A08F018F8E86A08F015F82069D2
:10438000009060690190208BADF808001A22214648
:1043900003A8FBF73AFF0DF10C0C9CE80F00FFF7A8
:1043A00021FBA28A1849A86A07F066FEA28A16496C
:1043B000E86A07F061FE228B05F12001A86A07F088
:1043C000CBFFE28A05F12401E86A07F0C5FF0FB0D0
:1043D00030BD000025642E25642E25642E25640042
:1043E0008080002043757272656E74204445564982
:1043F000443D25642E25642E25642E25640000008E
:1044000025730A00CC000020C4C9000830B58FB065
:104410000446FFF71BF800285FD00DA90CA8CDE9D2
:1044200000010BAB0AAA2EA12046FBF751FF2F4C2F
:104430000A98042220710B9860710C98A0710D9855
:10444000E071211D1046FCF753FC0422211D10468B
:10445000FCF73CFCE179A079CDE900016379227990
:1044600023A104F6580000F045FB04F6580127A0EC
:1044700000F030FB04F65800FCF738FE244DA86A23
:1044800007F092FFE86A07F08FFF206900906069EB
:104490000190208BADF808001A22214603A8FBF7F3
:1044A000B4FE0DF10C0C9CE80F00FFF79BFAA28AFA
:1044B0001849A86A07F0E0FDA28A1649E86A07F0E1
:1044C000DBFD228B05F12001A86A07F045FFE28A97
:1044D00005F12401E86A07F03FFF0FB030BD00008E
:1044E00025642E25642E25642E25640080800020FE
:1044F00043757272656E74204445564D41534B3D71
:1045000025642E25642E25642E25640025730A005B
:10451000CC000020C4C900087CB501AA21A1FBF78A
:10452000D7FE214C01980222A082010A8DF80010CA
:104530008DF8010069461420FCF7DAFB0222694677
:104540001420FCF7C3FB9DF801009DF8001000EB60
:10455000012216A104F65800019200F0CBFA04F6ED
:10456000580117A000F0B6FA04F65800FCF7BEFD9B
:10457000144DA86A07F018FFE86A07F015FFA86A4B
:10458000A18A4182EA6AA18A5182228B05F1200127
:1045900007F0E2FEE28A05F12401E86A07F0DCFE9A
:1045A0007CBD00002564000080800020D0DEB8C4FF
:1045B000CDEAB3C90A444556504F52543D256400D4
:1045C00025730A00CC00002030B587B00446FEF702
:1045D0003DFF002851D006A905A8CDE9000104AB94
:1045E00003AA27A12046FBF773FE03988DF8080065
:1045F00004988DF8090005988DF80A0006988DF842
:104600000B00042202A90C20FCF772FB04221F49B4
:104610000C20FCF75BFB1D4C0C3CE17BA07BCDE947
:104620000001637B227B1AA104F6580000F062FAB5
:1046300004F658011DA000F04DFA04F65800FCF7EE
:1046400055FD1B4DE86A07F0AFFEE068E17B03BA59
:104650000A0603F47F4342EA032203BA00BA03F4D2
:104660007F03084342EA132205F1240142EA106065
:104670000860E28AE86A07F06FFE07B030BD00000C
:1046800025642E25642E25642E2564008C80002050
:1046900043757272656E74204E545049443D2564D2
:1046A0002E25642E25642E256400000025730A0043
:1046B000CC0000207CB501AA1AA1FBF709FE1A4C18
:1046C00001980222E082010A8DF800108DF80100A5
:1046D00069461620FCF70CFB022269461620FCF7FF
:1046E000F5FA9DF801009DF8001000EB01220FA1E2
:1046F00004F65800019200F0FDF904F6580110A0EC
:1047000000F0E8F904F65800FCF7F0FC0D4DE86AFB
:1047100007F04AFEE28A05F12401E86A07F01CFE70
:104720007CBD00002564000080800020D0DEB8C47D
:10473000CDEAB3C90A4E5450504F52543D2564003F
:1047400025730A00CC00002010B59EB01CA9009172
:104750001BAB1AAA14A1FBF7BBFD164C1A982071CB
:104760001B9860711C98A0712046FCF761FBB0B1EA
:1047700011A000F0AFF92046FCF7C4FDA07900902D
:104780006379227910A101A800F0B4F901A915A05C
:1047900000F0A0F901A8FCF7A9FC1EB010BD12A002
:1047A00000F098F9F9E7000025643A25643A256499
:1047B000000000000A01002056616C6964207469E1
:1047C0006D650D0A000000005365742052544320AB
:1047D00074696D653A25643A25643A2564200D0AAA
:1047E0000000000025730A00496E76616C69642040
:1047F00074696D650D0A00007FB506460C461420ED
:10480000FCF77AFF0021039103A94FF4FA7202200A
:104810000091CDE901026FF00F054FF00103EEB1F9
:10482000E52280211A48FDF75BFD9DF80D009DF8FB
:104830000C1000F0FC0000EB0120FBF73BFF002216
:10484000144BFBF7AEFE2A46FBF71DFF0022124B6E
:10485000FBF7A1FEFBF74FFF20607FBDE322802125
:104860000B48FDF73DFD9DF80D009DF80C1000F084
:10487000FC0000EB0120FBF71DFF084A084BFBF78B
:1048800090FE2A46FBF7FFFE064A074BE0E70000D2
:104890002401002000405F4000001840D7A3703D75
:1048A0000AF76540CDCCCCCCCC6C474070470000BB
:1048B000014807F0FBBC0000A8880020FDF730BFCE
:1048C00030B593B038216846FBF7B8FC14210EA828
:1048D000FBF7B4FC0920009001244FF48030042140
:1048E0000794CDE902010225CDE908500190059415
:1048F0004FF4E010CDE90A054FF4C0600C90402061
:104900000D906846FEF7D0F808B172B6FEE70F20AA
:10491000CDE90E0500204FF48061CDE91001129021
:1049200002210EA8FDF790FF08B172B6FEE7002243
:104930004FF0C0611046FEF793F80248046713B0C9
:1049400030BD0000000042427047000070B50446D0
:1049500000680169E26821F4405111430161A168D6
:1049600020690143606901432068C26841F20C6319
:104970009A430A43C26020684169A26921F44071E8
:10498000114341611E492068884202D1FEF70EF8AA
:1049900001E0FDF7FBFF00EBC00101EB00116068D7
:1049A00064228000B1FBF0F3B3FBF2F36FF0180662
:1049B0007343B1FBF0F5B1FBF0F605EB8305322351
:1049C00003EB0515B5FBF2F5B6FBF2F605F0F005C5
:1049D00005EB0615B1FBF0F6B1FBF0F0B0FBF2F021
:1049E0006FF01801484306EB800003EB0010B0FBAA
:1049F000F2F0216800F00F002844886070BD0000CC
:104A0000003801402DE9F0411E461746884604460D
:104A1000069D26E0681C24D025B1FDF797FB801B7E
:104A2000A8421ED920680C3050E8001F21F4D07134
:104A300040E80012002AF5D12068143050E8001F29
:104A400021F0010140E80012002AF5D1202084F86D
:104A5000410084F84200002084F840000320BDE8B3
:104A6000F0812068016838EA010004D00020B842D3
:104A7000D0D00020F3E70120F9E7FEE72DE9F0416F
:104A8000134D884607464FF480640022214628468D
:104A9000FDF757FBA600002231462846FDF751FBE3
:104AA000012221462846FDF74CFB3846FCF702FC64
:104AB0004046FCF7FFFB002221462846FDF741FB5C
:104AC00031462846BDE8F0410022FDF73ABB000020
:104AD000001001400FB4054B10B503A9044A029819
:104AE00000F03CF810BC5DF814FB0000CD5C000841
:104AF000140100200FB4084B10B504A902AA0398B2
:104B000000F02CF8044602A9002000F003F920462A
:104B100010BC5DF814FB0000154D00080907090ED4
:104B2000002804DB00F1E02080F80014704700F05A
:104B30000F0000F1E02080F8141D704702E008C863
:104B4000121F08C1002AFAD170477047002001E007
:104B500001C1121F002AFBD1704700002DE9FF4F51
:104B60008BB09A460F460546002606E025280BD056
:104B700052460D9990476D1C761C28780028F5D177
:104B80000FB03046BDE8F08F0024A04601226049F6
:104B900000E0044315F8013F203B02FA03F008420D
:104BA000F7D128782E2817D115F8010F44F0040406
:104BB0002A280ED06FF02F022878A0F130010929A1
:104BC0000AD808EB880102EB410100EB01086D1CDB
:104BD000F2E757F8048B6D1C287869283ED006DC74
:104BE0000028CDD063280BD0642804D136E0732888
:104BF00010D075284BD052460D999047761C85E011
:104C000017F8040B8DF8000000208DF80100E9462C
:104C1000012003E057F8049B4FF0FF3061074FF08D
:104C2000000401D40AE0641C44450DDA8442FADB36
:104C300019F804100029F6D106E0641C8442FCDB5C
:104C400019F804100029F8D1264404E019F8010BE2
:104C500052460D999047641EF8D257E001CF4FF0AD
:104C60000A0B002802DA40422D2102E0210504D57A
:104C70002B218DF82410012103E0E10705D020212C
:104C8000F7E70DF1200908910CE00021F9E701CFC9
:104C90004FF00A0BF9E75946FBF749FD01F13002E5
:104CA00009F8012D0028F6D1ADEB090000F1200B29
:104CB000600701D44FF00108D84502DDA8EB0B00D6
:104CC00000E000208046002406E009A85246005D6E
:104CD0000D999047641C761C08988442F5DB04E02B
:104CE000302052460D999047761CB8F10001A8F18A
:104CF0000108F5DC05E019F8010B52460D999047C3
:104D0000761CBBF10001ABF1010BF4DC6D1C34E748
:104D1000092801000A68531C0B60107070470000DE
:104D200010B504464068804722462068BDE8104020
:104D3000014904F069B90000214D000870B505462D
:104D40000C46880706D006A34FF4CE7210A118A017
:104D5000FFF7C0FEA86800682060A868046070BD06
:104D60002E2E2F4D6964646C6577617265732F54C4
:104D7000686972645F50617274792F4C7749502F63
:104D80007372632F636F72652F6D656D702E630094
:104D90006D656D705F667265653A206D656D20703A
:104DA000726F7065726C7920616C69676E65640002
:104DB000417373657274696F6E20222573222066B9
:104DC00061696C6564206174206C696E652025647E
:104DD00020696E2025730A0010B580680468002CD5
:104DE0000CD021680160A00706D005A34FF4A4727F
:104DF0000FA118A0FFF76EFE204610BD002010BDC9
:104E00002E2E2F4D6964646C6577617265732F5423
:104E1000686972645F50617274792F4C7749502FC2
:104E20007372632F636F72652F6D656D702E6300F3
:104E30006D656D705F6D616C6C6F633A206D656D53
:104E4000702070726F7065726C7920616C69676E2A
:104E500065640000417373657274696F6E2022256A
:104E60007322206661696C6564206174206C696ED0
:104E70006520256420696E2025730A0070B50A4EEE
:104E80000546002404EB440006EBC000017D29B177
:104E90008068A84202D1204600F02CF9641CE4B2DC
:104EA0000A2CEFD370BD00008C7F00202DE9F74F56
:104EB00080460A2084B00024029007460190A34651
:104EC000A246A14600904C4904EB440001EBC00609
:104ED0000390357D0A2F18D0002D24D0012D08D045
:104EE000022D06D245A340F2251252A161A0FFF780
:104EF000F1FDB8F1000F0CD0D8F8000071688842BD
:104F000007D160B207B0BDE8F08F002DE6D167B2DF
:104F100009E0012D15D0022D05D3708A484502D332
:104F200061B281460191641CE4B20A2CCBD305988E
:104F300081074FF0FF30E5D40A2F15D017DAFCB205
:104F40003AE02D48039950F831000028708A05D0C6
:104F50005845E8D361B283460091E4E75045E2D377
:104F600061B282460291DEE70599C907CAD001996C
:104F70000A290EDACCB2204804EB440150F8310083
:104F800070B11EA340F26F1244A13AA0FFF7A2FD38
:104F900006E002990A2902DB00990A29B2DACCB2AA
:104FA0000A2C06D315A340F2811242A131A0FFF7CB
:104FB00091FD204600F09EF80A2C06D30FA340F284
:104FC00085123CA12BA0FFF785FD0B4804EB4401A3
:104FD00000EBC105287D30B108A34FF4C3723AA19C
:104FE00024A0FFF777FDB8F1000F02D0D8F8000039
:104FF00068600020688284E78C7F00202E2E2F4D71
:105000006964646C6577617265732F546869726452
:105010005F50617274792F4C7749502F7372632FF0
:10502000636F72652F697076342F65746861727072
:105030002E6300007374617465203D3D2045544823
:105040004152505F53544154455F50454E44494E80
:1050500047207C7C207374617465203E3D2045545C
:10506000484152505F53544154455F535441424C60
:1050700045000000417373657274696F6E202225CC
:105080007322206661696C6564206174206C696EAE
:105090006520256420696E2025730A006172705FA7
:1050A0007461626C655B695D2E71203D3D204E55DB
:1050B0004C4C000069203C204152505F5441424C0E
:1050C000455F53495A4500006172705F7461626CBC
:1050D000655B695D2E7374617465203D3D204554A8
:1050E000484152505F53544154455F454D505459C7
:1050F0000000000070B5074D00EB4004002655F895
:10510000340018B103F082FB45F8346005EBC400AD
:10511000067570BD8C7F00202DE9F04385B00D0031
:10512000074609D07C684FF48078208840453BD101
:105130002079062838D109E01DA34FF422722AA154
:105140002DA0FFF7C7FC05B0BDE8F0836079042807
:105150002AD16088082827D1D4F80E000490A169CC
:10516000686818B1814201D1012600E000260EB125
:10517000012300E0022304F10802914604A9284615
:1051800000F098FBE08840450ED16EB1022204ABDE
:10519000CDE90232291DCDE9001905F1290319468F
:1051A0004A46284600F088FA384603F02FFBCAE743
:1051B0002E2E2F4D6964646C6577617265732F5470
:1051C000686972645F50617274792F4C7749502F0F
:1051D0007372632F636F72652F697076342F6574F5
:1051E000686172702E6300006E6574696620213DEF
:1051F000204E554C4C000000417373657274696F0A
:105200006E2022257322206661696C6564206174BA
:10521000206C696E6520256420696E2025730A0064
:10522000FEB514460E46050006D141A340F21B32DE
:105230004DA151A0FFF74EFC36B93DA34FF4477284
:1052400057A14DA0FFF746FC34B939A340F21D32F7
:1052500056A149A0FFF73EFC2946206800F0C2FE97
:1052600008B1564B39E02068C0F303110E291FD056
:10527000A9686B6800EA01020B409A4208D080B22C
:10528000A0F57E41A93903D0E86880B305F10C048C
:105290004B4B4C4A187800EB400102EBC1010F7DEB
:1052A000022F28D3276849688F4224D1024630E074
:1052B00001208DF8040000208DF805005E208DF897
:1052C0000600607801AB00F07F008DF80700A07841
:1052D0008DF80800E0788DF809004FF40060009028
:1052E00005F129023146284600F0C2FBFEBDFFE76A
:1052F0006FF00300FAE7002101EB410002EBC00070
:10530000077D022F0AD327684068874206D1CAB2B8
:105310001A703146284600F057F8E7E7491C49B2B1
:105320000A29E9DB32462146284600F0D5F8DDE7B8
:105330002E2E2F4D6964646C6577617265732F54EE
:10534000686972645F50617274792F4C7749502F8D
:105350007372632F636F72652F697076342F657473
:10536000686172702E6300006E6574696620213D6D
:10537000204E554C4C000000417373657274696F88
:105380006E2022257322206661696C656420617439
:10539000206C696E6520256420696E2025730A00E3
:1053A0007120213D204E554C4C0000006970616415
:1053B000647220213D204E554C4C0000BAC80008B4
:1053C000C00000208C7F00202DE9F84306461546DA
:1053D00088461C4802EB450100EBC104207D0228F1
:1053E00006D219A34FF43B7225A131A0FFF772FB3F
:1053F000144A05EB4501207D02EBC1050C3502285E
:1054000013D1608A0327B0F58E7F04D9211D304661
:1054100000F00AFA07E0B0F5877F06D32A46211D7F
:10542000304600F007FA00B927754FF4006000908D
:105430002B4606F129024146304600F019FBBDE833
:10544000F88300008C7F00202E2E2F4D6964646C41
:105450006577617265732F54686972645F50617219
:1054600074792F4C7749502F7372632F636F726575
:105470002F697076342F6574686172702E63000036
:105480006172705F7461626C655B6172705F6964A8
:10549000785D2E7374617465203E3D20455448410B
:1054A00052505F53544154455F535441424C450060
:1054B000417373657274696F6E20222573222066B2
:1054C00061696C6564206174206C696E6520256477
:1054D00020696E2025730A002DE9FC5F8246293081
:1054E00001908846086816464FF0FF374FF0000BD2
:1054F000514600F077FD002828D1D8F80000C0F30D
:1055000003110E2922D0B8F1000F1FD000281DD0A2
:10551000524601214046FFF7C9FC040018D43B491C
:1055200004EB440901EBC905287D002812D00128AD
:1055300008D0022806D236A340F2C73242A14CA0BE
:10554000FFF7C8FABBF1000F0AD108E06FF00F00B7
:10555000BDE8FC9F01202875C5F808A000E036B919
:105560004146504600F060F90746002EF0D0287DF5
:10557000264902280DD3484805F10C033146047032
:105580004FF4006000905046019A00F071FA07460F
:1055900039E08846012836D1002534464FF47B7720
:1055A00060892189884207D1206828B118A33A462A
:1055B0003AA12FA0FFF78EFA207B012803D124689F
:1055C000002CEDD175B121890022022002F0CAFC25
:1055D000050016D0314602F095FF40B1284603F091
:1055E00015F90EE03546304603F026FB4DB158F86C
:1055F0003900444608B103F009F944F8395000274E
:1056000001E04FF0FF373846A2E700008C7F002012
:105610002E2E2F4D6964646C6577617265732F540B
:10562000686972645F50617274792F4C7749502FAA
:105630007372632F636F72652F697076342F657490
:10564000686172702E6300006172705F7461626CD9
:10565000655B695D2E7374617465203D3D20504526
:105660004E44494E47206F7220535441424C4500EE
:10567000417373657274696F6E20222573222066F0
:1056800061696C6564206174206C696E65202564B5
:1056900020696E2025730A00C00000206E6F207004
:1056A00061636B65742071756575657320616C6CE1
:1056B0006F776564210000002DE9FF4F81B09846A7
:1056C000DDE90FA9DDF838B006004FF0000706D17C
:1056D0002BA34FF48B6238A13BA0FFF7FBF900220C
:1056E0001C21022002F03EFC050046D068891C28DF
:1056F00006D223A340F263423DA133A0FFF7EAF9AB
:105700006C68119801F084FDE08096F82800062866
:1057100006D01BA340F26A4242492BA0FFF7DAF9F8
:10572000D8F80010A160B8F80400A081DAF80010E1
:10573000C4F81210BAF80400E082DBF80000C4F8E4
:105740000E00D9F80000A0614FF48070208008207E
:105750006080062020710420607140F60600DDE9BB
:10576000022300902946304600F082F9284603F0D3
:105770004DF8384605B0BDE8F08F4FF0FF30F9E73F
:105780002E2E2F4D6964646C6577617265732F549A
:10579000686972645F50617274792F4C7749502F39
:1057A0007372632F636F72652F697076342F65741F
:1057B000686172702E6300006E6574696620213D19
:1057C000204E554C4C000000417373657274696F34
:1057D0006E2022257322206661696C6564206174E5
:1057E000206C696E6520256420696E2025730A008F
:1057F000636865636B207468617420666972737492
:1058000020706275662063616E20686F6C6420731F
:105810007472756374206574686172705F68647215
:1058200000000000D4D00008014A00F003B80000D6
:10583000BAC800087FB5064D031D0124CDE9003527
:10584000CDE9021425331946FFF736FF04B070BDC9
:10585000C0C8000870B5164D002404EB440005EBE9
:10586000C002117DF1B1508A401C80B25082B0F567
:10587000967F0AD2012906D003290AD004290AD02A
:1058800001290BD00EE0052808D32046FFF732FC93
:1058900008E0042000E00220107503E0111D90686C
:1058A000FFF7C2FF641CE4B20A2CD6D370BD00001F
:1058B0008C7F0020F8B5044690F828001F46154656
:1058C0000E46062806D020A340F2AB122CA135A02C
:1058D000FFF700F99EB3306888B3214600F082FBE1
:1058E00068BB3078C0F303100E2829D02246394611
:1058F0003046FFF7DBFA002820DB344A00EB40019A
:1059000002EBC1000223037584602B68C360AB887F
:1059100003820023438252F8316076B142F831307D
:105920004FF4006000902B4604F1290231462046D6
:1059300000F09EF8304602F069FF0020F8BDFFE756
:105940006FF00F00FAE700002E2E2F4D6964646C93
:105950006577617265732F54686972645F50617214
:1059600074792F4C7749502F7372632F636F726570
:105970002F697076342F6574686172702E63000031
:105980006E657469662D3E6877616464725F6C65EC
:105990006E203D3D204554485F4857414444525F86
:1059A0004C454E00417373657274696F6E202225F9
:1059B0007322206661696C6564206174206C696E75
:1059C0006520256420696E2025730A008C7F0020E5
:1059D00070B5044640890D460E283CD960680178B0
:1059E0008689CA0714D0012905D006221F49FAF773
:1059F00049FC48B10CE0417851B980785E2807D164
:105A0000607B40F0100002E0607B40F008006073B3
:105A10006FF00D01082E03D0B6F5C16F1BD10FE05A
:105A200095F82F00000716D560890E2813DB204655
:105A300002F09EFF78B92946204600F017FC12E0DC
:105A400095F82F00000706D560890E2803DB204655
:105A500002F08EFF18B1204602F0D8FE03E029467E
:105A60002046FFF759FB002070BD0000BAC80008AF
:105A70002DE9F04104461F4690460E46069801F077
:105A8000C7FB05460E21304602F072FF18B16FF0D9
:105A90000100BDE8F0817068858139680160B988CE
:105AA0008180D8F80020C0F80620B8F804104181A1
:105AB00094F82800062806D006A340F22B1213A162
:105AC0001FA0FFF707F831462046A269BDE8F04164
:105AD000104700002E2E2F4D6964646C657761724B
